:100000000C945E000C9486000C9486000C94860080
:100010000C9486000C9486000C9486000C94F604D4
:100020000C9486000C9486000C9486000C94860038
:100030000C9486000C942F010C9486000C9486007E
:100040000C949E080C9486000C9478040C94520432
:100050000C9486000C9486000C9486000C94860008
:100060000C9486000C9486000000000024002700F9
:100070002A0000000008000201000003040700003D
:10008000000000000000010204081020408001026E
:1000900004081020010204081020000000002500C0
:1000A00028002B00040404040404040402020202D5
:1000B00002020303030303030200571C11241FBEA3
:1000C000CFEFD8E0DEBFCDBF13E0A0E0B1E0ECEFB2
:1000D000F3E402C005900D92AA3AB107D9F725E0E2
:1000E000AAEAB3E001C01D92AD37B207E1F710E014
:1000F000CEE5D0E004C02197FE010E94E221CD357B
:10010000D107C9F70E940F0A0C94FC210C9400003F
:10011000982F862F913011F59091AF03292F30E061
:100120002233310519F02253310902C020E030E0BA
:10013000240F2093B4049091B404953618F094E6FB
:100140009093B4048093B304813019F48093B20483
:100150000895823041F41092B2040895923019F457
:10016000642F0C94E8080895CF93C62F813019F4BA
:10017000462F62E00AC0823019F4462F61E00EC0BB
:10018000853041F4462F61E081E00E9488006C2FA9
:1001900081E01DC0863041F4462F62E081E00E947C
:1001A00088006C2F82E013C0833041F440E063E0AC
:1001B00081E00E94880060E083E009C0843051F44F
:1001C00040E064E081E00E94880060E084E0CF913C
:1001D0000C94E808CF91089584E10E941C08BC01AA
:1001E000990F880B990B0E94472020E030E040EAED
:1001F00050E40E94FC2020E030EC4FE754E40E94E1
:100200009D1F20E030E040EA5EE30E949D1F0895BC
:10021000EF92FF920F931F93CF93DF9384EFE82E1B
:10022000FF24F39400E010E0C0E0D4E085E10E94F8
:100230001C088C179D070CF4EC01081719070CF427
:100240008C0181E0E81AF10889F7C8018C1B9D0B2D
:10025000DF91CF911F910F91FF90EF9008951F9222
:100260000F920FB60F921124CF92DF92EF92FF926E
:100270000F931F932F933F934F935F936F937F93AE
:100280008F939F93AF93BF93CF93EF93FF938AEC9A
:100290009FEF90938500809384000E9492080091C4
:1002A0009B0410919C0420919D0430919E046B014D
:1002B0007C01C01AD10AE20AF30A970186010D3DBA
:1002C00011052105310580F060939B0470939C0417
:1002D00080939D0490939E041092B2031092AF04F9
:1002E0001092AE041092AD0489B182FB882780F988
:1002F0008093AC048091AD04823079F50E9492081D
:1003000000919F041091A0042091A1043091A204B7
:100310006B017C01C01AD10AE20AF30A9701860137
:10032000083011052105310508F4D7C060939F04FA
:100330007093A0048093A1049093A2040E94920859
:1003400060939B0470939C0480939D0490939E04FF
:100350001092AF041092AE042AC1C091AD04C13016
:1003600009F03EC08091AC04811185C00E94330821
:100370000091A3041091A4042091A5043091A60437
:100380006B017C01C01AD10AE20AF30A49EBC416D8
:100390004BE0D406E104F10408F409C16093A3041E
:1003A0007093A4048093A5049093A60482E08093A4
:1003B000AD040E9433086093A3047093A404809357
:1003C000A5049093A6040E94920860939F047093E2
:1003D000A0048093A1049093A204C093AB044BC0EB
:1003E0008091AD04811147C08091AB04811112C08E
:1003F0008091AC0481113FC081E08093AB040E94E6
:1004000092086093A7047093A8048093A904909322
:10041000AA0431C0C091AC04C13069F51092AB049C
:100420000E9492080091A7041091A8042091A904A9
:100430003091AA046B017C01C01AD10AE20AF30AC6
:10044000970186010930110521053105A0F060935F
:10045000A7047093A8048093A9049093AA04C0935E
:10046000AD040E9433086093A3047093A4048093A6
:10047000A5049093A6048091B0042091B00330911C
:10048000B10390E08217930714F4299A01C02998C8
:100490008091B0042091B5033091B60390E08217AB
:1004A000930714F42A9A01C02A988091B0042091ED
:1004B000B7033091B80390E08217930714F42B9A96
:1004C00001C02B988091B304833009F48CC08091D3
:1004D000B304843009F06EC086C08091AB048823D9
:1004E000D9F08091AC04813031F60E9433086093DA
:1004F000A3047093A4048093A5049093A6040E947F
:10050000920860939F047093A0048093A104909339
:10051000A2041092AB04AFCF8091AC048111ABCF99
:100520008091AE04803168F18091AE04883148F545
:100530008091AF04880F8093AF040E94330800912C
:10054000A3041091A4042091A5043091A6046B018A
:100550007C01C01AD10AE20AF30A4DEDC41645E047
:10056000D406E104F104F8F06093A3047093A404AA
:100570008093A5049093A6048091AF04816080933A
:10058000AF048091AE048F5F8093AE0481E08093CE
:10059000AB048091AE04883109F06DCF8091AF0437
:1005A0008093B20368CF8091AF048E7FE8CF109222
:1005B000AD0461CF9091B1048091B404981740F4D8
:1005C0008091B204813011F4289A04C05E9A02C06E
:1005D0005E9828988091B6048330D1F18091B6045A
:1005E000843039F435C08091B304833089F75E9A42
:1005F000EBCF9091B1048091B704981740F48091AB
:10060000B504813011F45F9A04C05B9A02C05B9814
:100610005F988091AA039091AB03181619062CF4E9
:1006200001979093AB038093AA038091B1048F5FED
:100630008093B104853610F01092B1048091B0041B
:100640008F5F8093B004853648F01092B00406C0E6
:100650008091B6048330D9F65B9AD5CFFF91EF91A4
:10066000CF91BF91AF919F918F917F916F915F914A
:100670004F913F912F911F910F91FF90EF90DF903D
:10068000CF900F900FBE0F901F901895CF92DF92D2
:10069000EF92FF920F931F93CF93DF936C017A0138
:1006A0008B01C0E0D0E0CE15DF0589F0D8016D9157
:1006B0008D01D601ED91FC910190F081E02DC601F4
:1006C0000995892B11F47E0102C02196ECCFC70158
:1006D000DF91CF911F910F91FF90EF90DF90CF901E
:1006E0000895089580E090E00895FC01538D448DB5
:1006F000252F30E0842F90E0821B930B541710F0CD
:10070000CF96089501970895FC01918D828D9817D9
:1007100061F0828DDF01A80FB11D5D968C91928DE5
:100720009F5F9F73928F90E008958FEF9FEF0895E2
:10073000FC01918D828D981731F0828DE80FF11DAB
:10074000858D90E008958FEF9FEF0895FC01918DC6
:10075000228D892F90E0805C9F4F821B91098F73BF
:100760009927089580EE94E00E94A60321E0892B4A
:1007700009F420E0822F0895FC01848DDF01A80F89
:10078000B11DA35ABF4F2C91848D90E001968F73B9
:100790009927848FA689B7892C93A089B1898C91D8
:1007A00080648C93938D848D981306C00288F3899E
:1007B000E02D80818F7D80830895EF92FF920F93CB
:1007C0001F93CF93DF93EC0181E0888F9B8D8C8DFD
:1007D000981305C0E889F989808185FD24C0F62E2B
:1007E0000B8D10E00F5F1F4F0F731127E02E8C8DC4
:1007F000E8120CC00FB607FCFACFE889F9898081AE
:1008000085FFF5CFCE010E94BC03F1CF8B8DFE0199
:10081000E80FF11DE35AFF4FF0820B8FEA89FB8945
:100820008081806207C0EE89FF896083E889F98949
:1008300080818064808381E090E0DF91CF911F917F
:100840000F91FF90EF900895CF93DF93EC01888D87
:100850008823C9F0EA89FB89808185FD05C0A889C4
:10086000B9898C9186FD0FC00FB607FCF5CF80814A
:1008700085FFF2CFA889B9898C9185FFEDCFCE0194
:100880000E94BC03E7CFDF91CF91089580E090E014
:10089000892B29F00E94B20381110C940000089565
:1008A0000E94F7211F920F920FB60F9211242F93DF
:1008B0003F934F935F936F937F938F939F93AF93E8
:1008C000BF93EF93FF9380EE94E00E94BC03FF91EF
:1008D000EF91BF91AF919F918F917F916F915F91B8
:1008E0004F913F912F910F900FBE0F901F90189531
:1008F0001F920F920FB60F9211242F938F939F93F5
:10090000EF93FF93E091F004F091F1048081E09186
:10091000F604F091F70482FD12C090818091F904F1
:100920008F5F8F732091FA04821751F0E091F904E0
:10093000F0E0E052FB4F958F8093F90401C0808175
:10094000FF91EF919F918F912F910F900FBE0F907C
:100950001F90189590E0FC01EE58FF4F3491FC0178
:10096000EA57FF4F2491FC01EC55FF4FE491EE2331
:1009700009F43BC0332339F1333091F038F431308E
:10098000A9F0323001F584B58F7D12C0373091F077
:100990003830A1F03430B9F4809180008F7D03C0ED
:1009A000809180008F77809380000DC084B58F7711
:1009B00084BD09C08091B0008F7703C08091B000E2
:1009C0008F7D8093B000F0E0EE0FFF1FE656FF4FE3
:1009D000A591B4918FB7F894EC91611103C0209563
:1009E0002E2301C02E2B2C938FBF08951F920F92A0
:1009F0000FB60F9211242F933F934F935F936F93F2
:100A00007F938F939F93AF93BF93EF93FF938091C7
:100A1000DC049091DD04A091DE04B091DF04892B09
:100A20008A2B8B2B59F18091DB04E091D904F09152
:100A3000DA049081892780838091DC049091DD0421
:100A4000A091DE04B091DF04181619061A061B06E1
:100A50000CF03DC08091DC049091DD04A091DE0497
:100A6000B091DF040197A109B1098093DC04909350
:100A7000DD04A093DE04B093DF0429C080910A0155
:100A8000E8EBF0E0E4919FEF90930A01E130B9F0D8
:100A900098F0E230C9F4909170009D7F90937000BF
:100AA00091E09093B0009091B100987F9460909302
:100AB000B1001092B30008C010926E0005C0909172
:100AC0006F009D7F90936F0060E00E94AA04FF91E9
:100AD000EF91BF91AF919F918F917F916F915F91B6
:100AE0004F913F912F910F900FBE0F901F9018952F
:100AF000CF93DF9390E0FC01EA57FF4F2491FC0174
:100B0000EC55FF4F8491882361F190E0880F991F85
:100B1000FC01E859FF4FC591D491FC01E656FF4F07
:100B2000A591B491611109C09FB7F894888120956F
:100B300082238883EC912E230BC0623061F49FB72F
:100B4000F8943881822F809583238883EC912E2B13
:100B50002C939FBF06C08FB7F894E8812E2B288373
:100B60008FBFDF91CF9108953F924F925F926F9226
:100B70007F928F929F92AF92BF92CF92DF92EF922D
:100B8000FF920F931F93CF93DF9300D000D0CDB788
:100B9000DEB790910A01981721F09F3F09F036C205
:100BA00004C0E8EBF0E0349081C080930A01E8EBE8
:100BB000F0E0E491EF3F09F429C2E13031F1E23095
:100BC00009F44BC0E11171C014BC15BC94B592601E
:100BD00094BD95B5916095BDA82FB0E0FD01EC5591
:100BE000FF4FE491F0E0EE0FFF1FE656FF4F059137
:100BF00014911093D0040093CF04FD01EA57FF4FE6
:100C0000E491E093CE04312C53C0109280001092F6
:100C10008100909181009860909381009091810073
:100C2000916090938100A82FB0E0FD01EC55FF4F3B
:100C3000E491F0E0EE0FFF1FE656FF4F059114918F
:100C40001093CD040093CC04FD01EA57FF4FE491CB
:100C5000E093CB04332433942BC01092B000109255
:100C6000B1009091B00092609093B0009091B1006B
:100C700091609093B100A82FB0E0FD01EC55FF4FBB
:100C8000E491F0E0EE0FFF1FE656FF4F059114913F
:100C90001093DA040093D904FD01EA57FF4FE49161
:100CA000E093DB0402E0302E03C03E2E37FCAEC1E1
:100CB00029013A018B0161E00E9478054801A12CCD
:100CC000B12C832D8D7F09F0BBC060E072E18AE713
:100CD00090E0A50194010E94A42129833A834B83CB
:100CE0005C8369017A0121E0C21AD108E108F108A8
:100CF0008FEFC816D104E104F10409F008F44CC0E8
:100D000060E472E48FE090E0A50194010E94A421C8
:100D100069017A01E1E0CE1AD108E108F108F2E0B8
:100D20003F1220C02FEFC216D104E104F10409F0F4
:100D300008F46AC160E970ED83E090E0A5019401D8
:100D40000E94A42169017A0181E0C81AD108E10852
:100D5000F108EFEFCE16D104E104F10409F0D0F56B
:100D600083E067C0FFEFCF16D104E104F104B1F0D6
:100D7000A8F068E478EE81E090E0A50194010E947B
:100D8000A42169017A0181E0C81AD108E108F108BB
:100D9000332009F4DFC02FC181E001C082E033209D
:100DA000A1F047C089819A81AB81BC812AE0B595C9
:100DB000A795979587952A95D1F76C017D0121E03C
:100DC000C21AD108E108F10885E095B5987F892B12
:100DD00085BD6FC068E478EE81E090E0A5019401E4
:100DE0000E94A42169017A01F1E0CF1AD108E1083B
:100DF000F1082FEFC216D104E104F10409F008F460
:100E0000A7C064E274EF80E090E0A50194010E9425
:100E1000A42169017A01E1E0CE1AD108E108F108C4
:100E2000FFEFCF16D104E104F10411F008F0B4C0D3
:100E300085E09091B100987F892B8093B10039C0F3
:100E400060E072E18AE790E0A50194010E94A4218C
:100E500069017A0181E0C81AD108E108F108C114DA
:100E6000D104E1E0EE06F10488F068E478EE81E078
:100E700090E0A50194010E94A42169017A01F1E0AA
:100E8000CF1AD108E108F10893E001C091E021E018
:100E900032120FC080918100887F892B809381005E
:100EA000411451046104710449F42FEF3FEFA9018B
:100EB0002DC0411451046104710471F0D801AA0FCE
:100EC000BB1FA30192010E94C32128EE33E040E042
:100ED00050E00E94822103C02FEF3FEFA90181E083
:100EE0003816A1F0E2E03E1619F131108FC0C7BCF0
:100EF0002093D5043093D6044093D7045093D8045C
:100F000080916E00826080936E0080C0D0928900D4
:100F1000C09288002093D1043093D2044093D3042C
:100F20005093D40480916F00826080936F006EC0F4
:100F3000C092B3002093DC043093DD044093DE04C0
:100F40005093DF04809170008260809370005EC0D7
:100F500084E06FCFFFEFCF16D104E104F104D1F0AC
:100F6000C8F062E17AE780E090E0A50194010E9478
:100F7000A42169017A0181E0C81AD108E108F108C9
:100F8000EFEFCE16D104E104F10411F008F00ACF1E
:100F900084E01BCF83E019CF62E17AE780E090E044
:100FA000A50194010E94A42169017A0181E0C81A77
:100FB000D108E108F108EFEFCE16D104E104F10405
:100FC000C1F0B8F089819A81AB81BC814AE0B595C6
:100FD000A795979587954A95D1F76C017D0121E0FA
:100FE000C21AD108E108F108332009F4EDCE87E0F8
:100FF00020CF86E0D4CEFFEFCF16D104E104F10478
:1010000009F050F684E0CBCE82E013CF0F900F9022
:101010000F900F90DF91CF911F910F91FF90EF9064
:10102000DF90CF90BF90AF909F908F907F906F9008
:101030005F904F903F9008958E3008F08E508770EB
:10104000806480937C0080917A00806480937A0031
:1010500080917A0086FDFCCF809178002091790004
:1010600090E0922B08953FB7F8948091C704909137
:10107000C804A091C904B091CA0426B5A89B05C0B4
:101080002F3F19F00196A11DB11D3FBFBA2FA92F07
:10109000982F8827820F911DA11DB11DBC01CD0184
:1010A00042E0660F771F881F991F4A95D1F7089570
:1010B0008F929F92AF92BF92CF92DF92EF92FF9268
:1010C0006B017C010E9433084B015C01C114D10407
:1010D000E104F104F1F00E943308DC01CB0188192E
:1010E0009909AA09BB09883E9340A105B10570F38F
:1010F00021E0C21AD108E108F10888EE880E83E0E9
:10110000981EA11CB11CC114D104E104F10419F70B
:10111000DDCFFF90EF90DF90CF90BF90AF909F908A
:101120008F9008952FB7F8946091C3047091C40410
:101130008091C5049091C6042FBF08951F920F920D
:101140000FB60F9211242F933F938F939F93AF93DA
:10115000BF938091C3049091C404A091C504B09141
:10116000C6043091C20423E0230F2D3720F40196EA
:10117000A11DB11D05C026E8230F0296A11DB11DBA
:101180002093C2048093C3049093C404A093C50425
:10119000B093C6048091C7049091C804A091C9047B
:1011A000B091CA040196A11DB11D8093C70490930C
:1011B000C804A093C904B093CA04BF91AF919F9192
:1011C0008F913F912F910F900FBE0F901F90189508
:1011D0009091AE03292F30E02233310519F02253CC
:1011E000310902C020E030E0260F2093B70490912F
:1011F000B704953618F094E69093B7048093B6043C
:10120000813019F48093B5040895823011F410925E
:10121000B50408950C941D1F0C94151F4F925F92F6
:101220006F927F92AF92BF92CF92DF92EF92FF9236
:101230000F931F93CF93DF936A01EB017C0100E0D2
:1012400010E088EEA82E83E0B82E0C151D0544F59D
:1012500069917991C5010E946E212B01F70161917D
:1012600071917F01052C000C66087708A30192019B
:1012700084E00E94B405C301B2010E94472026E623
:1012800036E646EA5FE30E94FC200E940F20072E0C
:10129000000C880B990B0E9458080F5F1F4FD5CF89
:1012A000DF91CF911F910F91FF90EF90DF90CF9042
:1012B000BF90AF907F906F905F904F900895009790
:1012C00069F0FC0101900020E9F73197AF01481B5C
:1012D000590BBC0180EE94E00C94460380E090E052
:1012E0000895CF93DF930E945F09EC0182EB91E0B8
:1012F0000E945F098C0F9D1FDF91CF9108950C9480
:101300005F098F929F92AF92BF920F931F93CF93DB
:10131000DF93CDB7DEB7A1970FB6F894DEBF0FBE4F
:10132000CDBF19A2423008F44AE08E010F5D1F4F75
:10133000842E912CA12CB12CA50194010E94822114
:10134000E62FB901CA0101501109EA3014F4E05D39
:1013500001C0E95CD801EC93232B242B252B61F7EA
:10136000C8010E945F09A1960FB6F894DEBF0FBEB8
:10137000CDBFDF91CF911F910F91BF90AF909F9004
:101380008F900895E091E004F091E1040190F081E4
:10139000E02D682F80EE94E00994CF92DF92EF92D7
:1013A000FF92CF93DF9397FF19C06B017C018DE211
:1013B0000E94C209EC0166277727CB016C197D09D1
:1013C0008E099F094AE00E9481098C0F9D1FDF91C1
:1013D000CF91FF90EF90DF90CF9008954AE0DF919A
:1013E000CF91FF90EF90DF90CF900C948109CF9335
:1013F000DF93BC01990F880B990B0E94CD09EC017A
:1014000082EB91E00E945F098C0F9D1FDF91CF91CD
:101410000895BC01990F880B990B0C94CD09CF93BB
:10142000DF93CDB7DEB7A8970FB6F894DEBF0FBE37
:10143000CDBF789484B5826084BD84B5816084BD5D
:1014400085B5826085BD85B5816085BD80916E0062
:10145000816080936E001092810080918100826093
:1014600080938100809181008160809381008091D0
:1014700080008160809380008091B10084608093BF
:10148000B1008091B00081608093B00080917A00BB
:10149000846080937A0080917A00826080937A00E1
:1014A00080917A00816080937A0080917A008068D0
:1014B00080937A001092C100E091F004F091F10461
:1014C00082E08083E091F004F091F1041082E091D9
:1014D000EC04F091ED041082E091EE04F091EF0441
:1014E00080E180831092F804E091F404F091F50417
:1014F00086E08083E091F204F091F30480818061C2
:101500008083E091F204F091F3048081886080830D
:10151000E091F204F091F304808180688083E0918F
:10152000F204F091F30480818F7D808384E10E9436
:101530001C08BC01990F880B990B0E94472020E0E2
:1015400030E040EA50E40E94FC2020E030EC4FE71D
:1015500054E40E949D1F20E030E040EA5EE30E94D8
:101560009D1F2DEC3CEC4CE650E40E94981F87FF39
:1015700019C061E08AE00E94780561E08AE00E947B
:10158000AA0468EE73E080E090E00E94580860E0F2
:101590008AE00E94AA0468EE73E080E090E00E9476
:1015A0005808EBCF60E085E10E94780561E084E0B7
:1015B0000E94780560E082E00E94780560E083E1A7
:1015C0000E94780560E085E00E9478058EE190E059
:1015D0000E940C09823511F00C94E3168FE190E023
:1015E0000E940C098F3411F00C94E31680E290E015
:1015F0000E940C09823411F00C94E31681E290E011
:101600000E940C098F3411F00C94E3168AE190E0EB
:101610000E940C0990E09093AD038093AC03019776
:10162000049730F081E090E09093AD038093AC0399
:101630008BE190E00E940C09182F8093AF038CE19E
:1016400090E00E940C098093AE03153658F062E3D7
:101650008BE190E00E940A098BE190E00E940C0966
:101660008093AF038091AE03853658F062E38CE13E
:1016700090E00E940A098CE190E00E940C0980939E
:10168000AE0389E190E00E940C09282F30E03093EE
:10169000510420935004853670F06EE189E190E0AA
:1016A0000E940A0989E190E00E940C0990E0909361
:1016B00051048093500461E083E00E94780561E06A
:1016C00087E00E94780561E086E00E94780561E08D
:1016D00088E00E94780560E083E00E94AA0460E050
:1016E00087E00E94AA0460E086E00E94AA0460E00D
:1016F00088E00E94AA0461E08AE00E94780561E027
:101700008BE00E94780561E089E00E94780560E046
:101710008AE00E94AA0460E08BE00E94AA0460E0D4
:1017200089E00E94AA041092B6031092B5031092A9
:10173000B8031092B7031092B1031092B0038091D6
:101740006F008E7F80936F00809180008C7F8093EC
:101750008000809181008B7F8093810083E0809363
:10176000810080916F00816080936F008FE00E9404
:101770001C08803991407CF080E10E941C0880396F
:10178000914064F08EE00E941C08803991404CF03A
:1017900085E090E008C084E090E005C082E090E041
:1017A00002C081E090E090938804809387040597BD
:1017B00009F079C280E290E09093B6038093B5037C
:1017C0009093B8038093B7039093B1038093B003D1
:1017D00086E0EBE0F1E0DE011D9601900D928A9526
:1017E000E1F786E0E1E1F1E0DE01119601900D9272
:1017F0008A95E1F743E050E0BE016F5F7F4FCE0175
:101800000D960E940E091092B6031092B503109225
:10181000B8031092B7031092B1031092B00380E0A6
:1018200090E020EDFC01E852FC4F258306968837B6
:101830009105C1F766E0F62EC12C74E0D72EEE2498
:10184000E394E8E08E2E912CA12CB12CF5E04F2EE4
:10185000512C612C712C40EE242E50ED352E8091B0
:10186000D6039091D7039C012F5F3F4F3093D7034E
:101870002093D6038C3A9D40FCF485E10E941C081D
:101880002091020130910301582F492F2817390761
:1018900014F4522F432F50930201409303012091DF
:1018A000D4033091D503821793070CF4C9019093A8
:1018B000D5038093D4032FC08091D4039091D50396
:1018C0002091020130910301821B930B9093D3036B
:1018D0008093D2031092D7031092D603D0920301C3
:1018E000C09202011092D5031092D40314C080EE6E
:1018F00094E00E9484039091C303911113C08F3F21
:1019000009F05CC09091B9039F3F09F057C0E09285
:10191000C3031092B90380EE94E00E94A603892BC2
:1019200031F74FC02091C1033091C203F901E45453
:10193000FC4F80832F5F3F4F3093C2032093C1033E
:101940004091BC0350E042175307CCF6E0920101EE
:101950001092C3031092C2031092C1032091BA03E4
:101960003091BB03ACEBB3E0F29EB001F39E700D7F
:10197000112440E050E09D91FA01E60FF71FE85274
:10198000FC4F90834F5F5F4F45305105A1F7F29EAA
:10199000F001F39EF00D1124E852FC4F25822F5FD9
:1019A0003F4F243131052CF43093BB032093BA030D
:1019B000A6CF1092BB031092BA03A1CF8093B903B4
:1019C000AACF80910101882309F481C00091D0033E
:1019D0001091D103F09EF001F19EF00D1124E85218
:1019E000FC4F81818D3071F148F48B3009F443C094
:1019F0008C3009F042C0109200013FC08E3041F19E
:101A00008F30D9F5838190E0982F88272281822B0F
:101A10009093CF038093CE03848190E0880F991F29
:101A20009093CD038093CC032091CC033091CD03D0
:101A30006091CE037091CF0340E050E084E00E94BB
:101A4000B4051BC04481638182810E94880015C057
:101A5000828190E09093B6038093B503838190E0F8
:101A60009093B8038093B703848190E09093B1037F
:101A70008093B00302C0E0920001F09EF001F19E5D
:101A8000F00D1124E852FC4F35820F5F1F4F0431D7
:101A900011052CF41093D1030093D00304C01092CD
:101AA000D1031092D0038091D0039091D103F89E7E
:101AB000F001F99EF00D1124E852FC4F8581803D24
:101AC00019F41092010116C0E092010113C0EDED6E
:101AD000F3E080E090E02081203E39F4E0920101C3
:101AE0009093D1038093D00305C00196369684313C
:101AF000910589F70E9492080091C8031091C903CB
:101B00002091CA033091CB03DC01CB01801B910BE8
:101B1000A20BB30B4E97A105B10508F4A0CE4091DE
:101B2000C4035091C5036091C6037091C70345304B
:101B3000510561057105B4F5842F4DA35EA36FA314
:101B400078A70E941C08209100014DA15EA16FA101
:101B500078A5222389F0092E000CAA0BBB0BBA0131
:101B6000552744278C019D01042B152B262B372B41
:101B7000C901B8010E94071F8091C4039091C50359
:101B8000A091C603B091C7030497A105B10509F060
:101B90005EC04092C4035092C5036092C603709227
:101BA000C70355C04630510561057105C1F40E9457
:101BB000EC0020910001222309F449C020E030E02C
:101BC00048EC52E40E94FC200E941620CB01A0E0C9
:101BD000B0E0BC01CD0186600E94071F38C04730CD
:101BE000510561057105C9F46091D2037091D30369
:101BF00080910001882341F0CB01A0E0B0E0BC015E
:101C0000CD0187600E94071F8092C4039092C50394
:101C1000A092C603B092C7031AC0493051056105AE
:101C20007105A9F46091B203862F90E0A0E0B0E0C6
:101C3000BC01CD017164896020910001222339F03B
:101C40004AE00E94810982EB91E00E945F09809145
:101C5000C4039091C503A091C603B091C703019638
:101C6000A11DB11D8A309105A105B1054CF48093E9
:101C7000C4039093C503A093C603B093C70308C0E1
:101C80001092C4031092C5031092C6031092C703AA
:101C90000E9492086093C8037093C9038093CA039B
:101CA0009093CB03D8CD80915004909151049093A0
:101CB0008604809385048CE0E7E1F1E0DE011D9667
:101CC00001900D928A95E1F78CE0E3E2F1E0DE010C
:101CD000119601900D928A95E1F746E050E0BE0121
:101CE0006F5F7F4FCE010D960E940E0904E610E053
:101CF0001093B6030093B5031092B8031092B70384
:101D00001092B1031092B00364E670E080E090E0BE
:101D10000E9458081092B6031092B5031093B803AE
:101D20000093B7031092B1031092B00364E670E021
:101D300080E090E00E9458081092B6031092B5031C
:101D40001092B8031092B7031093B1030093B0033D
:101D500064E670E080E090E00E9458081092B603BC
:101D60001092B5031092B8031092B7031092B1030A
:101D70001092B0038091870490918804813091057E
:101D8000B9F5F09085048EE00E941C086C018FE08C
:101D90000E941C085C0180E10E941C086F2D20E954
:101DA000A21621E0B206A4F482E00E94B40066E923
:101DB00070E080E090E00E9458086F2D85E00E945E
:101DC000B4006AEF70E080E090E00E94580806C717
:101DD00030E9C31631E0D30614F486E004C080393C
:101DE000914024F485E00E94B400F8C681E0FBCF66
:101DF0008230910509F077C0D09085046CE271E0E3
:101E000080E090E00E945808A4E6AA2EB12C0FEFC3
:101E100013E0EE24EA94B3E0FB2E81E10E941C085B
:101E20008E159F0524F481E10E941C087C0182E14B
:101E30000E941C088017910724F482E10E941C086C
:101E40008C01F1E0AF1AB10841F722E3E20EF11C78
:101E50000E5C1F4F6F2D85E190E00E9456176E2D8E
:101E600086E190E00E945617612F87E190E00E9482
:101E70005617602F88E190E00E94561786E0EFE247
:101E8000F1E0DE011D9601900D928A95E1F786E062
:101E9000E5E3F1E0DE01119601900D928A95E1F7FC
:101EA00043E050E0BE016F5F7F4FCE010D960E9470
:101EB0000E0981E10E941C085C0182E10E941C085D
:101EC000EA14FB0444F46D2D0817190714F481E09B
:101ED00007C085E005C0081719075CF76D2D86E07F
:101EE0000E94B400E6CF049709F078C6809185047B
:101EF0008093090188E290E00E94581790E0909347
:101F0000B4038093B3030E9492084B015C0185E106
:101F100090E00E945817F82E86E190E00E94581732
:101F2000082F87E190E00E945817182F88E190E071
:101F30000E945817202F30E03F293093080120934A
:101F40000701212F30E0322F2227282B3093060162
:101F500020930501D12C74E6672E712CE0E44E2EFF
:101F6000EFE15E2EF2E32F2E312C0E949208DC016D
:101F7000CB0188199909AA09BB09833C9140A105A5
:101F8000B10530F10E9492084B015C01D11013C0E1
:101F90008AE090E09093B6038093B5039093B803E2
:101FA0008093B703EEE1F0E0F093B103E093B00368
:101FB000DD24D3940DC01092B6031092B503109295
:101FC000B8031092B7031092B1031092B003D12C52
:101FD0000E94291E8C01892B19F40091B20310E094
:101FE0000038110569F58091AC039091AD0301971C
:101FF00009F446C180915204811107C081E08093A9
:1020000052045092AB034092AA038091AA0390918C
:10201000AB03892B09F045C180915204813009F04E
:1020200040C161E08AE190E00E940A0981E00E94DB
:10203000C21E21E030E03093AD032093AC0351C0C9
:102040000D38110509F072C08091AC039091AD0379
:10205000029709F415C180915204811107C082E0F2
:10206000809352045092AB034092AA038091AA033A
:102070009091AB03892B09F014C1809152048230F6
:1020800009F00FC162E08AE190E00E940A0982E053
:1020900090E09093AD038093AC037092B60360928E
:1020A000B5031092B8031092B7031092B1031092C7
:1020B000B0036AEF70E080E090E00E945808109250
:1020C000B6031092B5031092B8031092B7031092A2
:1020D000B1031092B0036AEF70E080E090E00E94DC
:1020E00058087092B6036092B5031092B80310922C
:1020F000B7031092B1031092B0036AEF70E080E072
:1021000090E00E9458081092B6031092B503109206
:10211000B8031092B7031092B1031092B0036AEFA4
:1021200070E080E090E00E945808BBC003381105C1
:1021300009F051C08091AC039091AD03039709F46D
:102140009FC080915204811107C083E080935204A4
:102150005092AB034092AA038091AA039091AB03E3
:10216000892B09F09EC0F090520493E0F91299C0B7
:1021700063E08AE190E00E940A09E3E0F0E0F09376
:10218000AD03E093AC037092B6036092B503109276
:10219000B8031092B7031092B1031092B0036AEF24
:1021A00070E080E090E00E9458081092B603109210
:1021B000B5031092B8031092B7031092B1031092B6
:1021C000B0036AEF70E080E090E00E945808FA9453
:1021D000F110D9CF66C00B38110509F051C08091BC
:1021E000AC039091AD03049709F44AC08091520466
:1021F000811107C084E0809352045092AB03409257
:10220000AA038091AA039091AB03892B09F049C0DE
:10221000F0905204F4E0FF1244C064E08AE190E0E0
:102220000E940A0924E030E03093AD032093AC0310
:102230007092B6036092B5031092B8031092B70380
:102240001092B1031092B0036AEF70E080E090E06A
:102250000E9458081092B6031092B5031092B8036A
:102260001092B7031092B1031092B0036AEF70E0BE
:1022700080E090E00E945808FA94F110D9CF11C084
:102280008091AA039091AB03892B41F410925204E0
:102290008FEF9FEF9093AB038093AA030115110575
:1022A00059F085EB91E00E947F0984EC91E00E9457
:1022B0007F09C8010E94F7098DE090E00E94841C0C
:1022C0000817190709F072C10091090110E08BE1AC
:1022D00090E00E945817D82E8CE190E00E94581789
:1022E000C82EC8010E94F70986E0EBE3F1E0DE01A9
:1022F0001D9601900D928A95E1F786E0E1E4F1E008
:10230000DE01119601900D928A95E1F743E050E0CD
:10231000BE016F5F7F4FCE010D960E940E0968ECE3
:1023200070E080E090E00E945808512C22E3422E99
:102330003CEDA32E33E0B32E4BEF842E43E0942EDE
:1023400050E1652E712C0E94291E7C01892B19F405
:10235000E090B203F12C81E090E00E94841CE8162A
:10236000F90619F4602F81E020C083E090E00E941C
:10237000841CE816F90619F4602F85E016C084E085
:1023800090E00E94841CE816F90619F4602F86E09C
:102390000CC082E090E00E94841CE816F90619F453
:1023A000602F82E002C060E083E00E94B40086E01B
:1023B00090E00E94841CE816F90641F087E090E066
:1023C0000E94841CE816F906A1F504C00436110524
:1023D0002CF022C505311105DCF02AC5065F1F4F20
:1023E000053611050CF021C5602F89E190E00E94AF
:1023F000561785E0809FB001819F700D11246251B6
:102400007D4F20E530E040E050E084E00E94B405DC
:1024100086EC91E00E947F0984EC91E00E947F09A4
:10242000C8010E94F7096EE571E080E090E00E942B
:1024300058088AE090E00E94841CE816F90641F0F2
:102440008BE090E00E94841CE816F90669F528C527
:1024500093E69D1540F48BE090E00E94841CE81602
:10246000F90649F4F7C4D092AF03D3946D2D8BE1F4
:1024700090E00E9456172CE330E040E050E06CE41E
:1024800074E084E00E94B40564EF71E080E090E0C5
:102490000E9458088CEC91E00E947F0984EC91E046
:1024A0000E947F098D2D2CC08CE090E00E94841C3E
:1024B000E816F90609F0C5C4E3E6EC1508F0D6C441
:1024C0008DE090E00E94841CE816F90609F4D7C458
:1024D0002CE330E040E050E068EE73E084E00E94DE
:1024E000B40564EF71E080E090E00E94580884ED4C
:1024F00091E00E947F0984EC91E00E947F098C2D7D
:102500000E94C21E89E090E00E94841CE816F90631
:1025100009F019CF511009C00E94920869A37AA34B
:102520008BA39CA3552453940ECF0E94920829A1FB
:102530003AA14BA15CA124523A4F4F4F5F4F26174F
:1025400037074807590708F0FECE4092AF03409284
:10255000AE0362E38BE190E00E94561762E38CE1E8
:1025600090E00E945617BE8EAD8E98A28F8E7A8E06
:10257000698E84E090E09C8F8B8F42E050E0BE013A
:10258000675E7F4FCE014D960E940E0964EF71E0A9
:1025900080E090E00E94580883E992E00E9471096F
:1025A000512C92E3C92E22E3D22ECDCEC02E11277C
:1025B00085E090E00E94841C0817190709F058C2B2
:1025C00060E273E080E090E00E94580894E0E92E19
:1025D000F12C6CE271E080E090E00E9458082091BC
:1025E000B20385E090E02DA30E94841C2DA130E071
:1025F0002817390709F03CC2F1E0EF1AF10849F752
:1026000080EA92E00E94710986E0E7E4F1E0DE01F1
:102610001D9601900D928A95E1F786E0EDE4F1E0D8
:10262000DE01119601900D928A95E1F744E050E0A9
:10263000BE016F5F7F4FCE010D960E940E0988E2AA
:1026400090E00E945817082F10E083E290E00E946B
:102650005817282E87EB92E00E947F0984EC91E0C6
:102660000E947F098091B3039091B4030E94F709FF
:1026700086EC92E00E947F0984EC91E00E947F0941
:10268000C8010E94F70985EC91E00E94710983ED71
:1026900092E00E947F0984EC91E00E947F0988ED1E
:1026A00092E00E94710983E5C82E84E0D82EE12CC7
:1026B000F12CE016F106BCF4C70189960E94581768
:1026C0005601F60181936F01C7010E94090A84EC4B
:1026D00091E00E947F09F50180810E94C21EFFEFF8
:1026E000EF1AFF0AE6CF85EC91E00E9471098CEDAC
:1026F00091E00E947109A4EF6A2E77247394B4E1EB
:10270000AB2EB12C82E3882E912C3324339485ECAC
:1027100091E00E947109F3E5CF2EF4E0DF2EE12C69
:10272000F12CE016F1060CF09CC1C7010E94090AC9
:1027300084EC91E00E947F09F601608170E080E006
:1027400090E04AE00E94810984EC91E00E947F09B8
:10275000F60151906F01252D22952F7029A3352D5B
:102760003F70432E253009F064C086EE91E00E9450
:102770007F0984EC91E00E947F09E52DE770F0E08D
:10278000E757FE4F8081813069F58EE053FE15C01A
:102790000E941C08803991400CF07FC38FE00E949A
:1027A0001C08803991400CF078C380E10E941C081D
:1027B000803991400CF46EC370C30E941C088139AB
:1027C00091400CF46AC38FE00E941C08813991404B
:1027D0000CF463C380E10E941C08813991400CF025
:1027E00059C35BC3823011F48EE018C0833091F47A
:1027F0008FE00E941C08252D287080399140ACF094
:10280000822F90E0E3E095958795EA95E1F721E046
:10281000822789C0843009F089C080E10E941C08A9
:10282000252D28708039914014F4822F6CC0822F9E
:1028300072C029A1263009F082C08AEF91E00E947F
:102840007F0984EC91E00E947F09E52DE770F0E0BC
:10285000EA57FE4F8081813079F581E153FE16C041
:102860000E941C08209107013091080182179307EC
:102870000CF013C382E10E941C08209105013091E5
:102880000601821793070CF405C307C30E941C08B6
:102890002091070130910801281739070CF0FDC27B
:1028A00082E10E941C082091050130910601281741
:1028B00039070CF4EFC2F1C28230B1F481E10E9419
:1028C0001C082091070130910801452D487082179E
:1028D0009307C4F0842F90E073E0959587957A95DF
:1028E000E1F731E083271FC0833001F582E10E94C8
:1028F0001C082091050130910601452D4870821772
:10290000930744F4842F90E063E0959587956A954A
:10291000E1F709C0842F90E053E0959587955A958B
:10292000E1F7E1E08E2781708093040184EC91E06F
:102930000E947F098091040190E00E94090A809121
:102940000401882309F485C029A1213009F044C07D
:102950008FE092E00E947F0931E0431205C010929F
:10296000B6031092B50307C082E048120DC09092E2
:10297000B6038092B5031092B8031092B703109279
:10298000B1031092B00365C093E0491209C01092E0
:10299000B6031092B5039092B8038092B703EFCFBD
:1029A000E4E04E1209C01092B6031092B5031092E3
:1029B000B8031092B7030BC0F5E04F124AC0B092B3
:1029C000B603A092B5039092B8038092B703B09279
:1029D000B103A092B0033DC029A12330B9F48CE12A
:1029E00092E00E947F09E42DF0E0EE0FFF1FEC580B
:1029F000FE4F60817181072E000C880B990B24E03B
:102A000030E040E050E00E94D51E23C039A13430B0
:102A100071F48CE292E00E947F09E42DF0E0E1592C
:102A2000FE4F6091090180810E94B40012C029A16B
:102A3000223079F48EE392E00E947F09469CB00137
:102A4000479C700D1124072E000C880B990B0E94D7
:102A5000580882EB91E00E945F093FEFE31AF30A06
:102A600060CE211054CE8DE492E00E947109FFCF18
:102A70008C2D0E945A1782E090E00E94841C081757
:102A8000190709F072CA68EE73E080E090E00E94D6
:102A9000580800E010E036E0F32E68E572E080E0D0
:102AA00090E00E945808E090B20382E090E00E941B
:102AB000841C2E2D30E02817390709F056CA3092B1
:102AC000B6032092B5033092B8032092B703109258
:102AD000B1031092B00301301105F1F56091B30319
:102AE0007091B4031616170654F46150710970936F
:102AF000B4036093B30388E290E00E9456178DE51B
:102B000092E00E947109E3E5F1E0DE011D968F2D50
:102B100001900D928A95E1F7E9E5F1E0DE01119669
:102B20008F2D01900D928A95E1F743E050E0BE01B0
:102B30006F5F7F4FCE010D960E940E098CE692E0EA
:102B40000E947F0984EC91E00E947F098091B30389
:102B50009091B4030E94F7090F5F1F4F04301105D5
:102B600009F09BCF1092B4031092B30360E088E2A7
:102B700090E00E94561760E083E290E00E945617B2
:102B800080EE92E00E94710988E0EFE5F1E0DE015D
:102B90001D9601900D928A95E1F788E0E7E6F1E055
:102BA000DE01119601900D928A95E1F744E050E024
:102BB000BE016F5F7F4FCE010D960E940E098CE61D
:102BC00092E00E947F0984EC91E00E947F0980914D
:102BD000B3039091B4030E94F709C7C90E9408018A
:102BE0007C010E94EC002DEC3CEC4CE650E40E9491
:102BF000981F87FF05C01093B6030093B5030EC05E
:102C000089E5E81682E0F8062CF01093B8030093EB
:102C1000B70304C01092B8031092B7038EE00E946D
:102C20001C080E94090A84EC91E00E947F098FE051
:102C30000E941C080E94090A84EC91E00E947F090E
:102C400080E10E941C080E94090A84EC91E00E9425
:102C50007F0981E10E941C080E94090A84EC91E02E
:102C60000E947F0982E10E941C080E94090A84ECEC
:102C700091E00E947F090E94EC006B017C019B01A6
:102C8000AC010E946921882319F08CE792E01AC0F8
:102C900046015701E894B7F82FEF3FEF4FE75FE7A2
:102CA000C501B4010E94692181110FC02FEF3FEFD0
:102CB0004FE75FE7C501B4010E94981F18162CF476
:102CC00080E892E00E945F0972C02FEF3FEF4FE76C
:102CD0005FE4C701B6010E94F72018161CF484E8CF
:102CE00092E0F0CF2FEF3FEF4FE75FECC701B60167
:102CF0000E94981F87FDF3CF20E030E0A901C701B3
:102D0000B6010E94981F87FF07C08DE20E94C2098A
:102D1000F7FAF094F7F8F0942AE037ED43EA5BE332
:102D2000C701B6010E942C1F4B015C010E941620B6
:102D30006B017C010E9445209B01AC01C501B401DF
:102D40000E942B1F4B015C014AE0C701B6010E94A3
:102D500081098EE20E94C20920E030E040E251E4A5
:102D6000C501B4010E94FC204B015C010E941620A9
:102D70006B01E12CF12C4AE0C701B6010E948109E8
:102D8000C701B6010E9445209B01AC01C501B401F9
:102D90000E942B1F20E030E040E251E40E94FC2022
:102DA0000E94162080E090E04AE00E94810984ECB5
:102DB00091E00E947F090E9408010E94F7090E9489
:102DC00046040C94BA0E88E892E00E94710962E50C
:102DD0008EE190E00E940A096FE48FE190E00E948A
:102DE0000A0962E480E290E00E940A096FE481E24D
:102DF00090E00E940A0961E08AE190E00E940A09DD
:102E000062E38BE190E00E940A0962E38CE190E0CA
:102E10000E940A090C94060B87E090E00E94841C33
:102E2000E816F90609F0F4CA03C004E610E0DCCAAB
:102E30000A501109043111050CF0D6CA04E110E062
:102E4000D3CA8DE090E00E94841CE816F90609F0D0
:102E500059CB29C08BE090E00E94841CE816F9064B
:102E600009F004CBD092AF03DA9400CBC092AE034A
:102E7000C3946C2D8CE190E00E94561729CB8DE015
:102E800090E00E94841CE816F90699F7C092AE0300
:102E9000CA94EFCF3092040149CD1092040146CD7F
:102EA000D110E0CFE8CAC110F1CF12CB0C941D1F96
:102EB0000C94151FAF92BF92CF92DF92EF92FF92C8
:102EC0000F931F93CF93DF93C82F082F10E08AE052
:102ED00090E00E94841C0817190709F0A6C082EF31
:102EE00092E00E94710980E093E00E947F0984ECE7
:102EF00091E00E947F0980E090E00E94F7090E9423
:102F0000941E00E010E0E4E1EE2EF12CF2E3CF2E6F
:102F1000D12C85E090E00E94841C2C2F30E02817F3
:102F2000390709F471C0C091B203AC2EB12C83E013
:102F300090E00E94841CA816B90631F401501109D2
:102F400088F404E010E00EC084E090E00E94841C4D
:102F5000A816B906A1F40F5F1F4F0530110511F433
:102F600000E010E00E94941E80E093E00E947F0940
:102F700084EC91E00E947F09C8010E94F709F801E2
:102F8000E157FE4F8081813029F41092B6031092F0
:102F9000B50306C0823069F4D092B603C092B5037F
:102FA0001092B8031092B7031092B1031092B003BD
:102FB00024C0833049F41092B6031092B503D09226
:102FC000B803C092B703F0CF843049F41092B6032F
:102FD0001092B5031092B8031092B7030AC085305F
:102FE00061F4F092B603E092B503D092B803C092B8
:102FF000B703F092B103E092B0036AEF70E080E0B3
:1030000090E00E94580885CFF801E157FE4F60819B
:1030100060618091B3039091B4039C012F5F3F4F97
:103020003093B4032093B303C0C38BE090E00E94BD
:10303000841C0817190709F06EC08DE093E00E9408
:10304000710980E093E00E947F0984EC91E00E9486
:103050007F0980E090E00E94F7090E94941E00E042
:1030600010E085E090E00E94841C2C2F30E02817AF
:10307000390709F442C0C091B203EC2EF12C83E071
:1030800090E00E94841CE816F90631F40150110901
:1030900088F407E010E00EC084E090E00E94841CF9
:1030A000E816F90619F50F5F1F4F0830110511F4E6
:1030B00000E010E0F801EE0FFF1FEC58FE4F6081BA
:1030C0007181072E000C880B990B24E030E040E062
:1030D00050E00E94D51E80E093E00E947F0984ECBE
:1030E00091E00E947F09C8010E94F7096AEF70E031
:1030F00080E090E00E945808B4CF8091B303909193
:10310000B4039C012F5F3F4F3093B4032093B3036C
:10311000602F60634AC38CE090E00E94841C081713
:10312000190709F06AC08EE193E00E94710980E0FE
:1031300093E00E947F0984EC91E00E947F0980E087
:1031400090E00E94F7090E94941E00E010E085E0E4
:1031500090E00E94841C2C2F30E028173907D9F109
:10316000C091B203EC2EF12C83E090E00E94841C0D
:10317000E816F90631F40150110988F404E010E072
:103180000EC084E090E00E94841CE816F906A1F4C9
:103190000F5F1F4F0530110511F400E010E00E9491
:1031A000941E80E093E00E947F0984EC91E00E94ED
:1031B0007F09C8010E94F70960910901F801E159EE
:1031C000FE4F80810E94B4006AEF70E080E090E0E2
:1031D0000E945808BCCF60E083E00E94B400809158
:1031E000B3039091B4039C012F5F3F4F3093B4031E
:1031F0002093B303602F6064D8C286E090E00E9401
:10320000841C0817190709F08CC081E393E00E9421
:10321000710980E093E00E947F0984EC91E00E94B4
:103220007F0980E090E00E94F7090E94941E00E070
:1032300010E085E090E00E94841C2C2F30E02817DD
:10324000390709F460C0C091B203EC2EF12C83E081
:1032500090E00E94841CE816F906E9F40150110977
:1032600010F408E010E0E12CF12CE016F106C9F1B1
:1032700024E630E040E050E06AE471E084E00E943F
:10328000B40562E870E080E090E00E9458082FEFFB
:10329000E21AF20AEACF84E090E00E94841CE81669
:1032A000F90651F50F5F1F4F0930110511F400E0C9
:1032B00010E0E12CF12CE016F10699F024E630E064
:1032C00040E050E06AE471E084E00E94B40562E806
:1032D00070E080E090E00E9458088FEFE81AF80A4A
:1032E000EACF80E093E00E947F0984EC91E00E94A5
:1032F0007F09C8010E94F7096AEF70E080E090E062
:103300000E94580896CF8091B3039091B4039C011A
:103310002F5F3F4F3093B4032093B303602F60625D
:1033200044C287E090E00E94841C0817190709F046
:1033300081C00E94941E1092B6031092B50382E3DE
:1033400090E09093B8038093B7031092B10310926A
:10335000B00381E493E00E94710980E593E00E944C
:103360007F0984EC91E00E947F0980E090E00E9458
:10337000F709D0E002E310E085E090E00E94841CB1
:103380002C2F30E02817390709F450C0C091B20340
:10339000EC2EF12C83E090E00E94841CE816F906E4
:1033A000E1F41093B6030093B5031092B8031092A2
:1033B000B7031092B1031092B0030E94941E80E0F4
:1033C00093E00E947F0984EC91E00E947F0981E0F4
:1033D00090E00E94F709D1E022C084E090E00E94D2
:1033E000841CE816F906D9F41092B6031092B503BE
:1033F0001093B8030093B7031092B1031092B00377
:103400000E94941E80E093E00E947F0984EC91E08A
:103410000E947F0980E090E00E94F709D0E06AEF07
:1034200070E080E090E00E945808A6CF6D2F83E204
:1034300090E0C2C188E090E00E94841C0817190740
:1034400009F0DFC08BE593E00E94710980E093E012
:103450000E947F0984EC91E00E947F0980E090E067
:103460000E94F7090E94941EC0E0D0E044E1E42EDF
:10347000F12C5AE0C52ED12C62E3A62EB12C00917E
:10348000B20310E081E090E00E94841C0817190745
:1034900069F482E793E00E947F0984EC91E00E9446
:1034A0007F0981E00E94C21E91E09EC082E090E010
:1034B0000E94841C0817190769F482E793E00E94B0
:1034C0007F0984EC91E00E947F0980E00E94C21E87
:1034D00090E08AC083E090E00E94841C08171907DE
:1034E00029F4219780F4C3E0D0E00DC084E090E09F
:1034F0000E94841C0817190799F42196C430D1053D
:1035000011F4C0E0D0E00E94941E80E093E00E949D
:103510007F0984EC91E00E947F09CE010E94F709A7
:10352000FE01E757FE4F80818130E1F48EE00E947A
:103530001C08803991400CF044C08FE00E941C08A8
:1035400080399140F4F580E10E941C088039914057
:10355000C4F5F092B603E092B503D092B803C092DE
:10356000B70390C1823059F48EE00E941C08803964
:1035700091403CF5B092B603A092B50326C08330CB
:1035800079F48FE00E941C081092B6031092B503E4
:1035900080399140D4F4D092B803C092B70319C0D7
:1035A0008430D9F480E10E941C081092B603109276
:1035B000B5031092B8031092B703803991404CF4D0
:1035C00061C11092B6031092B5031092B803109225
:1035D000B7031092B1031092B0036AEF70E080E07D
:1035E00090E00E9458084BCF2091B3033091B40370
:1035F000A9014F5F5F4F5093B4034093B303C0657D
:10360000CEC089E090E00E94841C0817190709F0D9
:1036100043C18FE793E00E94710980E093E00E942C
:103620007F0984EC91E00E947F0980E090E00E9495
:10363000F7090E94941EC0E0D0E094E1E92EF12C3D
:1036400022E3C22ED12C3AE0A32EB12C0091B2037A
:1036500010E081E090E00E94841C0817190769F4CB
:1036600082E793E00E947F0984EC91E00E947F0949
:1036700081E00E94C21E91E086C082E090E00E943C
:10368000841C0817190769F482E793E00E947F09F8
:1036900084EC91E00E947F0980E00E94C21E90E0CD
:1036A00072C083E090E00E94841C0817190729F477
:1036B000219780F4C2E0D0E00DC084E090E00E9449
:1036C000841C0817190799F42196C330D10511F409
:1036D000C0E0D0E00E94941E80E093E00E947F0949
:1036E00084EC91E00E947F09CE010E94F709FE015F
:1036F000EA57FE4F80818130A9F481E10E941C08C5
:10370000863B93406CF582E10E941C08863B934007
:103710003CF5F092B603E092B503B092B803A092E4
:10372000B703B5C0823059F481E10E941C08863B82
:103730009340B4F4D092B603C092B50315C0833061
:10374000D9F482E10E941C081092B6031092B503CE
:103750001092B8031092B703863B93404CF497C085
:103760001092B6031092B5031092B8031092B703EB
:103770001092B1031092B0036AEF70E080E090E025
:103780000E94580863CF2091B3033091B403A9017C
:103790004F5F5F4F5093B4034093B303C066990FDC
:1037A000990F990F692F6C2BC90189960E945617A2
:1037B0006091B30388E290E00E9456170E94941E25
:1037C00087E993E00E9471098CE692E00E947F09EC
:1037D00084EC91E00E947F098091B3039091B4033F
:1037E0000E94F70904E711E080E9E82E81E0F82E55
:1037F000C0E0D0E08091B3039091B403C817D9071B
:103800000CF04AC0C830D10514F4F80125C0CF30FF
:10381000D10514F4F70120C0C631D1051CF4F8011C
:103820007C971AC0CD31D10524F4F701648D758DD4
:1038300015C0C432D1051CF4F801F8970DC0CB3285
:10384000D10524F4F70160AD71AD08C0C233D105D4
:1038500064F4F801E455F1096081718126EA30E0F1
:1038600040E050E084E00E94B40567ED70E080E045
:1038700090E00E94580821960E5F1F4FF2E0EF1A69
:10388000F108B8CFF092B103E092B003A6CEF09267
:10389000B103E092B00370CFDF91CF911F910F91F0
:1038A000FF90EF90DF90CF90BF90AF900895E0EE43
:1038B000F4E01382128288EE93E0A0E0B0E084830B
:1038C0009583A683B78384EA91E09183808385EC16
:1038D00090E09587848784EC90E09787868780ECDA
:1038E00090E0918B808B81EC90E0938B828B82ECCB
:1038F00090E0958B848B86EC90E0978B868B118E75
:10390000128E138E148E08952091C0043091C1043C
:10391000232B09F18130910509F49AC18230910578
:1039200009F496C18330910509F435C184309105BD
:1039300009F40DC18630910509F403C18730910562
:1039400009F4FCC08D30910509F4F5C0893091056A
:1039500009F07EC1EDC02091AC033091AD03213060
:103960003105B9F58130910509F4E2C08230910545
:1039700009F4E1C08330910509F4E0C08430910579
:1039800009F4DFC08530910509F4DEC08630910569
:1039900009F4DDC08730910509F4DCC08830910559
:1039A00009F4DBC08930910509F4DAC08A30910549
:1039B00009F4D9C08B30910509F4D8C08C30910539
:1039C00009F4D7C08D30910509F042C187E190E03C
:1039D000089522303105B9F58130910509F4CCC044
:1039E0008230910509F4CBC08330910509F4CAC037
:1039F0008430910509F4C9C08530910509F4C8C027
:103A00008630910509F4C7C08730910509F4C6C016
:103A10008830910509F4C5C08930910509F4C4C006
:103A20008A30910509F4C3C08B30910509F4C2C0F6
:103A30008C30910509F4C1C08D30910509F008C1A1
:103A400087EE90E0089523303105B9F58130910576
:103A500009F4B6C08230910509F4B5C083309105F0
:103A600009F4B4C08430910509F4B3C085309105E0
:103A700009F4B2C08630910509F4B1C087309105D0
:103A800009F4B0C08830910509F4AFC089309105C0
:103A900009F4AEC08A30910509F4ADC08B309105B0
:103AA00009F4ACC08C30910509F4ABC08D309105A0
:103AB00009F0CEC087E690E008952430310509F082
:103AC000C7C08130910509F49FC08230910509F487
:103AD0009EC08330910509F49DC08430910509F49E
:103AE0009CC08530910509F49BC08630910509F48E
:103AF0009AC08730910509F499C08830910509F47E
:103B000098C08930910509F497C08A30910509F46D
:103B100096C08B30910509F495C08C30910509F45D
:103B200094C08D30910509F093C087EA90E090C071
:103B300080E890E0089580E490E0089580E290E0CD
:103B4000089580E190E0089580EF90E0089588E086
:103B500090E0089588E890E0089588E490E0089562
:103B600088EC90E0089584E190E0089585E190E08C
:103B7000089586E190E008958DE890E008958DE441
:103B800090E008958DE290E008958DE190E0089531
:103B90008DEF90E0089584E090E0089584E890E04F
:103BA000089584E490E0089584EC90E0089584EE14
:103BB00090E0089585EE90E0089586EE90E00895F7
:103BC00083E890E0089583E490E0089583E290E034
:103BD000089583E190E0089583EF90E008958CE0EC
:103BE00090E008958CE890E008958CE490E00895CA
:103BF0008CEC90E0089584E690E0089585E690E0EE
:103C0000089586E690E008958BE890E008958BE4AF
:103C100090E008958BE290E008958BE190E00895A4
:103C20008BEF90E0089582E090E0089582E890E0C4
:103C3000089582E490E0089582EC90E0089584EA8B
:103C400090E0089585EA90E0089586EA90E008956E
:103C50000895DF92EF92FF920F931F93CF93DF931C
:103C600080EE94E00E94A6038C01E12CF12CCFEFB2
:103C7000DFEFDD24D394E016F1060CF041C080EEB6
:103C800094E00E94840397FD37C0E091BF0491E067
:103C90009E0F9093BF04F0E0E754FB4F8083973072
:103CA00018F01092BF040CC0923051F48091B90406
:103CB0008F3F31F48091BA04853511F4D092B80465
:103CC0008091B8048130C1F48091BF048630A1F4A2
:103CD0001092BF049091BB048091BC04809598130E
:103CE0000BC04091BD048091BE048095481304C070
:103CF000292F30E0E901D42B8FEFE81AF80ABBCF67
:103D0000CF3F8FEFD80721F0D093C104C093C004F8
:103D10008091C0049091C104DF91CF911F910F91C8
:103D2000FF90EF90DF900895CF93DF93CDB7DEB78C
:103D30002C970FB6F894DEBF0FBECDBF86E0E4E946
:103D4000F1E0DE01179601900D928A95E1F786E089
:103D5000EAE9F1E0DE01119601900D928A95E1F712
:103D600043E050E0BE016F5F7F4FCE0107960E9497
:103D70000E092C960FB6F894DEBF0FBECDBFDF91B3
:103D8000CF910895CF93DF93682F70E080E090E0AB
:103D90004AE00E948109EC0182EB91E00E945F09F8
:103DA0008C0F9D1FDF91CF9108958F929F92AF92BC
:103DB000BF92CF92DF92EF92FF924B015C0168EECF
:103DC00073E080E090E00E94A42169017A01B401CF
:103DD00084E00E94B405B601DD0C880B990B0E94AB
:103DE000472026E636E646EA5FE30E94FC200E9472
:103DF0000F20072E000C880B990BFF90EF90DF909F
:103E0000CF90BF90AF909F908F900C945808CF9315
:103E1000DF930E94CD09EC0182EB91E00E945F09E3
:103E20008C0F9D1FDF91CF910895F999FECF92BD20
:103E300081BDF89A992780B50895262FF999FECF6C
:103E40001FBA92BD81BD20BD0FB6F894FA9AF99AB7
:103E50000FBE019608955058BB27AA270E94431F02
:103E60000C94BD200E94AF2038F00E94B62020F0B4
:103E700039F49F3F19F426F40C94AC200EF4E0952D
:103E8000E7FB0C94A620E92F0E94CE2058F3BA1726
:103E9000620773078407950720F079F4A6F50C9460
:103EA000F0200EF4E0950B2EBA2FA02D0B01B901D6
:103EB00090010C01CA01A0011124FF27591B99F0A0
:103EC000593F50F4503E68F11A16F040A22F232FAC
:103ED000342F4427585FF3CF469537952795A795FC
:103EE000F0405395C9F77EF41F16BA0B620B730BA3
:103EF000840BBAF09150A1F0FF0FBB1F661F771F14
:103F0000881FC2F70EC0BA0F621F731F841F48F4C8
:103F1000879577956795B795F7959E3F08F0B0CF51
:103F20009395880F08F09927EE0F97958795089538
:103F30000E94822008F481E008950E94B11F0C9431
:103F4000BD200E94B62058F00E94AF2040F029F416
:103F50005F3F29F00C94A62051110C94F1200C9491
:103F6000AC200E94CE2068F39923B1F3552391F33E
:103F7000951B550BBB27AA2762177307840738F0D8
:103F80009F5F5F4F220F331F441FAA1FA9F335D035
:103F90000E2E3AF0E0E832D091505040E695001CE9
:103FA000CAF72BD0FE2F29D0660F771F881FBB1FA3
:103FB000261737074807AB07B0E809F0BB0B802D81
:103FC000BF01FF2793585F4F3AF09E3F510578F0AD
:103FD0000C94A6200C94F1205F3FE4F3983ED4F3B8
:103FE000869577956795B795F7959F5FC9F7880F81
:103FF000911D9695879597F90895E1E0660F771FD3
:10400000881FBB1F621773078407BA0720F0621B63
:10401000730B840BBA0BEE1F88F7E09508950E948E
:1040200016206894B1110C94F12008950E94D620B6
:1040300088F09F5798F0B92F9927B751B0F0E1F069
:10404000660F771F881F991F1AF0BA95C9F714C019
:10405000B13091F00E94F020B1E008950C94F0206E
:10406000672F782F8827B85F39F0B93FCCF3869552
:1040700077956795B395D9F73EF4909580957095AF
:1040800061957F4F8F4F9F4F0895E89409C097FB2C
:104090003EF490958095709561957F4F8F4F9F4F1F
:1040A0009923A9F0F92F96E9BB279395F695879563
:1040B00077956795B795F111F8CFFAF4BB0F11F426
:1040C00060FF1BC06F5F7F4F8F4F9F4F16C08823CD
:1040D00011F096E911C0772321F09EE8872F762F03
:1040E00005C0662371F096E8862F70E060E02AF044
:1040F0009A95660F771F881FDAF7880F9695879530
:1041000097F90895990F0008550FAA0BE0E8FEEF04
:1041100016161706E807F907C0F012161306E4078B
:10412000F50798F0621B730B840B950B39F40A2684
:1041300061F0232B242B252B21F408950A2609F462
:10414000A140A6958FEF811D811D089597F99F6766
:1041500080E870E060E008959FEF80EC089500240F
:104160000A941616170618060906089500240A94DC
:1041700012161306140605060895092E0394000C62
:1041800011F4882352F0BB0F40F4BF2B11F460FFF1
:1041900004C06F5F7F4F8F4F9F4F089557FD90581A
:1041A000440F551F59F05F3F71F04795880F97FBFB
:1041B000991F61F09F3F79F08795089512161306B5
:1041C0001406551FF2CF4695F1DF08C016161706E4
:1041D0001806991FF1CF8695710561050894089519
:1041E000E894BB2766277727CB0197F908950E94AB
:1041F000822008F48FEF08950E940F210C94BD20B7
:104200000E94AF2038F00E94B62020F0952311F0D4
:104210000C94A6200C94AC2011240C94F1200E9444
:10422000CE2070F3959FC1F3950F50E0551F629F0C
:10423000F001729FBB27F00DB11D639FAA27F00DFF
:10424000B11DAA1F649F6627B00DA11D661F829F26
:104250002227B00DA11D621F739FB00DA11D621F0B
:10426000839FA00D611D221F749F3327A00D611D28
:10427000231F849F600D211D822F762F6A2F11240A
:104280009F5750409AF0F1F088234AF0EE0FFF1F3D
:10429000BB1F661F771F881F91505040A9F79E3F94
:1042A000510580F00C94A6200C94F1205F3FE4F3BC
:1042B000983ED4F3869577956795B795F795E795EA
:1042C0009F5FC1F7FE2B880F911D9695879597F9F3
:1042D00008950E948220880B990B089597FB072E62
:1042E00016F4009407D077FD09D00E94CE2107FC78
:1042F00005D03EF4909581959F4F089570956195F6
:104300007F4F0895A1E21A2EAA1BBB1BFD010DC011
:10431000AA1FBB1FEE1FFF1FA217B307E407F50775
:1043200020F0A21BB30BE40BF50B661F771F881F51
:10433000991F1A9469F760957095809590959B01E7
:10434000AC01BD01CF010895052E97FB1EF400942A
:104350000E94BB2157FD07D00E94822107FC03D099
:104360004EF40C94BB2150954095309521953F4FCC
:104370004F4F5F4F089590958095709561957F4F51
:104380008F4F9F4F08950E94E821A59F900DB49FE5
:10439000900DA49F800D911D11240895AA1BBB1B95
:1043A00051E107C0AA1FBB1FA617B70710F0A61B35
:1043B000B70B881F991F5A95A9F780959095BC0156
:1043C000CD010895EE0FFF1F0590F491E02D0994A3
:1043D000A29FB001B39FC001A39F700D811D112446
:1043E000911DB29F700D811D1124911D089581E0D2
:0C43F00090E0F8940C94FC21F894FFCFAE
:1043FC000101000401B603B6031EFF88011003205F
:10440C0006240024002400270520064D0A2D082D23
:10441C0009400C190019001900190019001900A6FF
:10442C00065102DB040C000C000800BA02700317E2
:10443C0004080008000800C004C201E007100010C6
:10444C00001000D50488054A080C0010000400591F
:10445C00089C02C004A4060C0010000C000400030D
:10446C0001020506060126014A015D018801B80119
:10447C00EE010B02040001020301020304320005E9
:10448C00010203044D0A2006C004100010000C00A9
:10449C0000000000DD03460375032404A603840317
:1044AC0098030D0A0052656D6F636F6E4461746101
:1044BC00203A200009005370656564004F666673EE
:1044CC0065744C004F666673657452002D207374CE
:1044DC00617274202D002D207479706553656E7394
:1044EC006F7246726F6E74202D002D20747970657A
:1044FC0053656E736F72426F74746F6D202D002D47
:10450C002074797065204C4544202D002D20747941
:10451C0070652042757A7A6572202D002D20747991
:10452C007065204443204D6F746F72202D002D2038
:10453C00747970652044656C6179202D002D207094
:10454C00726F6772616D20656E64202D002D2044A2
:10455C00656C657465206F6E65202D0050726F67F9
:10456C0072616D436F756E74203A20006E616E003F
:10457C00696E66006F766600466972737453746177
:10458C007274004F666673657420526573657400AF
:10459C002D2045786563757465436F646550726F43
:1045AC0063657373202D00436F6D6D616E644164A0
:1045BC00647265737300436F6D6D616E64436F75E8
:1045CC006E7400536C6F740050726F6772616D0083
:1045DC002D2044656C65746520416C6C204F4B201C
:1045EC002D002D204C454420496E707574202D00F3
:1045FC004E6F7753656C656374203A20002D204212
:10460C00757A7A657220496E707574202D002D2094
:10461C004443204D6F746F7220496E707574202D59
:10462C00002D2044656C617920496E707574202DC5
:10463C00002D204C6F6F7020496E707574202D000A
:10464C007365744C6F6F70203A20002D2046726F8A
:10465C006E742053656E736F7220496E7075742082
:10466C002D00436F6E646974696F6E203A20002DC3
:10467C0020426F74746F6D2053656E736F72204996
:10468C006E707574202D002D20496E70757420434A
:0A469C006F6D706C657465202D00D1
:00000001FF
